:1000000000000110D5210000715B0000AD2100004F
:10001000715B0000715B0000715B0000000000007C
:10002000000000000000000000000000B1670000B8
:10003000715B000000000000E1670000715B0000E0
:10004000715B0000715B0000715B0000715B000080
:10005000715B0000715B0000715B0000715B000070
:10006000715B0000715B0000715B0000715B000060
:10007000715B0000715B0000715B0000715B000050
:10008000715B0000715B0000715B0000715B000040
:10009000715B0000715B0000715B0000715B000030
:1000A000715B0000715B0000715B0000715B000020
:1000B000715B0000715B0000715B0000715B000010
:1000C000715B0000715B0000715B0000715B000000
:1000D000715B0000715B0000715B0000715B0000F0
:1000E000715B0000B87F00000000001020010000DC
:1000F000B87F000000000020000000002001001078
:10010000C80400000000002000000000FFFFFFFF07
:10011000FFFFFFFFFFFFFFFFFFFFFFFFFFFFFFFFEF
:10012000FFFFFFFFFFFFFFFFFFFFFFFFFFFFFFFFDF
:10013000FFFFFFFFFFFFFFFFFFFFFFFFFFFFFFFFCF
:10014000FFFFFFFFFFFFFFFFFFFFFFFFFFFFFFFFBF
:10015000FFFFFFFFFFFFFFFFFFFFFFFFFFFFFFFFAF
:10016000FFFFFFFFFFFFFFFFFFFFFFFFFFFFFFFF9F
:10017000FFFFFFFFFFFFFFFFFFFFFFFFFFFFFFFF8F
:10018000FFFFFFFFFFFFFFFFFFFFFFFFFFFFFFFF7F
:10019000FFFFFFFFFFFFFFFFFFFFFFFFFFFFFFFF6F
:1001A000FFFFFFFFFFFFFFFFFFFFFFFFFFFFFFFF5F
:1001B000FFFFFFFFFFFFFFFFFFFFFFFFFFFFFFFF4F
:1001C000FFFFFFFFFFFFFFFFFFFFFFFFFFFFFFFF3F
:1001D000FFFFFFFFFFFFFFFFFFFFFFFFFFFFFFFF2F
:1001E000FFFFFFFFFFFFFFFFFFFFFFFFFFFFFFFF1F
:1001F000FFFFFFFFFFFFFFFFFFFFFFFFFFFFFFFF0F
:10020000FFFFFFFFFFFFFFFFFFFFFFFFFFFFFFFFFE
:10021000FFFFFFFFFFFFFFFFFFFFFFFFFFFFFFFFEE
:10022000FFFFFFFFFFFFFFFFFFFFFFFFFFFFFFFFDE
:10023000FFFFFFFFFFFFFFFFFFFFFFFFFFFFFFFFCE
:10024000FFFFFFFFFFFFFFFFFFFFFFFFFFFFFFFFBE
:10025000FFFFFFFFFFFFFFFFFFFFFFFFFFFFFFFFAE
:10026000FFFFFFFFFFFFFFFFFFFFFFFFFFFFFFFF9E
:10027000FFFFFFFFFFFFFFFFFFFFFFFFFFFFFFFF8E
:10028000FFFFFFFFFFFFFFFFFFFFFFFFFFFFFFFF7E
:10029000FFFFFFFFFFFFFFFFFFFFFFFFFFFFFFFF6E
:1002A000FFFFFFFFFFFFFFFFFFFFFFFFFFFFFFFF5E
:1002B000FFFFFFFFFFFFFFFFFFFFFFFFFFFFFFFF4E
:1002C000FFFFFFFFFFFFFFFFFFFFFFFFFFFFFFFF3E
:1002D000FFFFFFFFFFFFFFFFFFFFFFFFFFFFFFFF2E
:1002E000FFFFFFFFFFFFFFFFFFFFFFFFFFFFFFFF1E
:1002F000FFFFFFFFFFFFFFFFFFFFFFFFFFFFFFFF0E
:10030000F8B500BFF8BC08BC9E4670475503000016
:1003100035190000D119000055200000B12200005D
:1003200097670000F8B500BFF8BC08BC9E46704750
:1003300010B5054C237833B9044B13B10448AFF31F
:1003400000800123237010BD200100100000000078
:10035000B87F000008B5034B1BB103490348AFF356
:10036000008008BD0000000024010010B87F0000DC
:1003700080B584B000AFF860B9607A603B60F8681F
:1003800000F012F8FB68BA681A60FB687A685A6075
:100390003A68FB689A60BA69FB68DA6000BFF8687F
:1003A0001037BD4680BDFFFF80B483B000AF7860DA
:1003B0007B68094A1A607B681A687B685A607B68A8
:1003C00000229A607B680022DA607B6818460C374E
:1003D000BD465DF8047B70476C70000080B483B04C
:1003E00000AF78607B689B6818460C37BD465DF8A7
:1003F000047B704780B483B000AF78607B681B6873
:1004000018460C37BD465DF8047B704780B483B056
:1004100000AF78607B685B6818460C37BD465DF8B6
:10042000047B704780B483B000AF786039603B686C
:1004300018460C37BD465DF8047B704780B400AFAA
:100440006FF000431846BD465DF8047B704780B4EA
:1004500000AF4FF0FF326FF0004310461946BD4623
:100460005DF8047B704780B584B000AF78607B682E
:10047000FB600023002B04D0786800F017F90346D6
:1004800004E0786806F0EAFD034600BF184610371E
:10049000BD4680BD80B483B000AF78607B681846ED
:1004A0000C37BD465DF8047B704780B483B000AF65
:1004B00078607B6818460C37BD465DF8047B704752
:1004C00080B483B000AF78607B6800229A607B685C
:1004D00018460C37BD465DF8047B704780B582B086
:1004E00000AF78607B689B68002B05D07B689B68B9
:1004F00078687968032298477B6818460837BD46B4
:1005000080BD80B483B000AF78607B689B68002BAF
:100510000CBF01230023DBB218460C37BD465DF843
:10052000047B704780B483B000AF78607B68D3E908
:100530000023104619460C37BD465DF8047B704712
:10054000B0B586B000AF786039607B68D3E900232E
:10055000C7E9022307F108031846FFF7E3FF044643
:100560000D463B68D3E90023C7E9042307F11003D4
:100570001846FFF7D7FF02460B46944275EB03037C
:10058000B4BF01230023DBB218461837BD46B0BD07
:1005900080B483B000AF786039603B68D3E9002352
:1005A0007968C1E900237B6818460C37BD465DF8C1
:1005B000047B704780B485B000AF78600023FB6097
:1005C0000023FB607A68FB6813441B78002B04D07F
:1005D00000BFFB680133FB60F4E7FB68013318469A
:1005E0001437BD465DF8047B704780B584B000AF1A
:1005F00078600023FB607868FFF7DCFFB8600023B9
:10060000FB60FA68BB689A420DD2BA68FB68D31ADD
:10061000013B7A6813441B782F2B03D0FB6801330E
:10062000FB60EEE700BFFB6818461037BD4680BD93
:1006300080B586B000AF78607868FFF7D6FF786144
:100640007868FFF7B7FF38613A697B69D31A7A682F
:100650001344FB60FB6818461837BD4680BD80B563
:1006600082B000AF786039603868FFF7FCFE024660
:100670007B681A607B683A685A607B68184608375E
:10068000BD4680BD80B483B000AF786039607B68C0
:100690001A783B681B789A420CBF01230023DBB217
:1006A00018460C37BD465DF8047B704780B584B0B2
:1006B00000AF78600023FB607A68FB681344002277
:1006C000FA7207F10B0211461846FFF7DBFF0346EB
:1006D00083F00103DBB2002B03D0FB680133FB6026
:1006E000EAE7FB6818461037BD4680BD80B582B08A
:1006F00000AF7860FFF7A2FE02467B681A607B6855
:10070000043304491846FFF7AAFF7B6818460837E8
:10071000BD4680BD8870000080B582B000AF7860B3
:1007200039607B681846FFF7E1FF3B681A687B6811
:100730001A607B683A680433043292E8030083E865
:1007400003007B6818460837BD4680BD80B485B07D
:1007500000AFF860B9607A607B681A68BB681A609D
:10076000BB687A680433043292E8030083E803002C
:10077000FB68BA6807CA83E80700F8681437BD4603
:100780005DF8047B704780B582B000AF78607B680D
:10079000184600F005F800BF78680837BD4680BDF0
:1007A00080B584B000AF78604FF000024FF00003D6
:1007B000C7E9022307F1080319467868FFF7E8FE46
:1007C00078681037BD4680BDB0B582B000AF7860A4
:1007D00039603868FFF7A6FE7B68D3E900238418E8
:1007E00041EB03057B68C3E900457B681846083781
:1007F000BD46B0BD80B586B000AF786007F110038C
:10080000184600F033F907F1100207F1080311460A
:10081000184600F038F907F1080319460648FFF7B3
:10082000D3FF7968044BD3E90023C1E9002378683A
:100830001837BD4680BD00BF4001001080B582B0B2
:1008400000AF78607B681846FFF748FE7B68184663
:100850000837BD4680BDFFFF90B599B000AF786105
:10086000C7E9022307F13003184600F051F907F1F8
:10087000300207F108031146184600F05DF90346FF
:10088000002B04D0D7E90223C7E90A2326E007F1A9
:1008900038031846FFF777FF07F1380207F108031E
:1008A0001146184600F048F90346002B04D02449AD
:1008B0007869FFF731FF3EE007F140032149184610
:1008C00000F061F93B4607F1080207F140011846C4
:1008D00000F072F9D7E90023C7E90A2307F11C03E6
:1008E00017491846FFF718FF07F14803154918463E
:1008F00000F049F907F1280207F1480311461846AC
:1009000000F08AF90346002B0DD0386F00F095F9FE
:100910000346002BE8D007F1540307F11C010A4AF3
:100920001846FFF713FF7B691C4607F11C0393E889
:10093000070084E8070078696437BD4690BD00BFB2
:1009400040710000480100103471000080B483B091
:1009500000AF7860002318460C37BD465DF8047B75
:10096000704780B582B000AF78607B681846FFF7AB
:10097000B5FD7B6818460837BD4680BD80B58CB094
:1009800002AFF860C7E9002307F11403184600F02E
:100990006BF9F96807F114030093D7E900230846BF
:1009A000FFF75AFF07F114031846FFF7DAFFF8685C
:1009B0002837BD4680BD80B586B000AFC7E90001CD
:1009C00007F10C01D7E900230846FFF7D7FF00BF66
:1009D0001837BD4680BDFFFF80B592B002AF381D0D
:1009E0000023009308231D4A1D49FFF7C1FC3A1D4F
:1009F0003B461C49184600F061F9002387F83F3058
:100A000097F83F300F2BF8D807F118000023009318
:100A10000D23124A1249FFF7ABFC07F1180397F8B0
:100A20003F2007F11400104900F05CF907F1300392
:100A3000184600F071F907F1300207F1280311465A
:100A4000184600F076F9D7E90A01FFF7B4FF97F8E6
:100A50003F30013387F83F30D2E700BF907000008D
:100A600098700000A8700000CC70000080B582B0C3
:100A700000AF78607B68184600F075F900BF7868B1
:100A80000837BD4680BD80B584B000AF786039605E
:100A900007F108033968184600F079F907F10803EF
:100AA0001846FFF73FFD02460B467968C1E900236F
:100AB0007B6818461037BD4680BDFFFF90B583B0F8
:100AC00000AF786039607B681846FFF7F9FC3B6837
:100AD000184600F06BF90346002B0FD07C683B46AC
:100AE000184600F073F903461946204600F079F9DC
:100AF0007B68054ADA607B68044A9A607B6818461E
:100B00000C37BD4690BD00BF070E00002B0E000045
:100B100080B584B000AF786000F0B2F902460B46B1
:100B2000C7E9022307F1080319467868FFF730FD8B
:100B300078681037BD4680BDB0B586B000AF78602C
:100B400039607B68D3E90023C7E9022307F1080372
:100B50001846FFF7E7FC04460D463B68D3E900233F
:100B6000C7E9042307F110031846FFF7DBFC024630
:100B70000B469D4206BF944201230023DBB2184678
:100B80001837BD46B0BD80B582B000AF786039601F
:100B90003B681846FFF7B5FC0346002B01D005F073
:100BA00090FE3B68DB6839687A681046984700BF5A
:100BB00078680837BD4680BD2DE9B0438AB000AFE4
:100BC000F860B9607A60BB68D3E90023C7E90623FF
:100BD00007F118031846FFF7A5FC04460D467B688D
:100BE000D3E90023C7E9082307F120031846FFF7DC
:100BF00099FC02460B4614EB020845EB0309C7E9D2
:100C0000048907F110031946F868FFF7C1FCF8687A
:100C10002837BD46BDE8B08380B582B000AF7860AC
:100C2000396079683868FFF78BFC034683F001036D
:100C3000DBB218460837BD4680BD80B582B000AF34
:100C400078607B681846FFF75CFC0346002B01D0F8
:100C500005F037FE7B68DB687A68104698470346E4
:100C600018460837BD4680BD90B583B000AF7860A8
:100C700039707B681846FFF723FC3B46184600F0A6
:100C800008F90346002B0FD07C683B46184600F05D
:100C90000BF903461946204600F011F97B68054A16
:100CA000DA607B68044A9A607B6818460C37BD4658
:100CB00090BD00BFE30E0000030F000080B586B0BA
:100CC00000AFF860B9607A6007F114007B68BA6819
:100CD000034900F071F9FB6818461837BD4680BD1E
:100CE000E070000080B588B002AFF860B9603B608A
:100CF0001346FB71FA7907F114003B680093134621
:100D0000BA68044900F046FAFB6818461837BD4631
:100D100080BD00BFE070000080B582B000AF786099
:100D20007B68184600F026FB00BF78680837BD4690
:100D300080BD80B584B000AF7860396007F10803EA
:100D40003968184600F02AFB07F108031846FFF738
:100D5000E9FB02460B467968C1E900237B68184627
:100D60001037BD4680BD80B584B000AF78604FF0CD
:100D700001024FF00003C7E9022307F108031946F7
:100D8000786800F02EFB78681037BD4680BD80B5CE
:100D900082B000AF786039607B683968184600F02F
:100DA00040FB00BF78680837BD4680BD80B483B083
:100DB00000AF78607B68002B14BF01230023DBB2F7
:100DC00018460C37BD465DF8047B704780B483B08D
:100DD00000AF78607B6818460C37BD465DF8047B31
:100DE000704790B585B000AF786039603868FFF71C
:100DF000EDFF034622461946786800F04CFB00BF21
:100E00001437BD4690BD80B582B000AF78603960C0
:100E1000386800F059FB03461B687A68104698470B
:100E200000BF78680837BD4680BDB0B586B000AF5A
:100E3000F860B9601346FB71FB79032B16D0032BC6
:100E400019DC012B02D0022B0AD014E0B86800F0A4
:100E50003BFB0446F86800F047FB03461C600AE0D1
:100E60002A46B968F86800F04BFB04E02146F868B0
:100E700000F05FFB00BF002318461837BD46B0BD29
:100E800080B500AFFFF7E3FA02460B46104619465D
:100E900080BD80B483B000AF7860012318460C3762
:100EA000BD465DF8047B704780B483B000AF7860C6
:100EB0007B6818460C37BD465DF8047B704790B5DB
:100EC00085B000AF786039603868FFF7EDFF034602
:100ED00022461946786800F038FB00BF1437BD463B
:100EE00090BD80B582B000AF7860786800F042FBBA
:100EF00003461846FFF72AFD034618460837BD4645
:100F000080BDB0B586B000AFF860B9601346FB7124
:100F1000FB79032B16D0032B19DC012B02D0022BFB
:100F20000AD014E0B86800F025FB0446F86800F029
:100F300031FB03461C600AE02A46B968F86800F0F5
:100F400035FB04E02146F86800F045FB00BF0023B4
:100F500018461837BD46B0BD80B582B000AF786086
:100F60007B68184600F005F8034618460837BD466A
:100F700080BD80B483B000AF78607B6818460C37C2
:100F8000BD465DF8047B704780B483B000AF7860E5
:100F90004FF4807318460C37BD465DF8047B7047EC
:100FA00080B483B000AF78607B681B6818460C374C
:100FB000BD465DF8047B70472DE9F041CEB004AF2B
:100FC00007F10C04206007F108000160391D0A6078
:100FD0003A46136007F110031846FFF7BDFF0646B7
:100FE00007F110031846FFF7CFFF80463B4618680D
:100FF000FFF700FA03461846FFF71AFB04463B4684
:101000001868FFF703FA05463B461868FFF7E6F94C
:10101000024607F108030292019500941B68594AA1
:101020004146304602F0F2F9C7F824010023C7F820
:10103000203107F110031846FFF7A6FF03461A46B2
:10104000D7F82431D31AC7F810310023C7F8143168
:1010500007F58A7207F588731146184600F0ADF956
:1010600003461B68C7F82031D7F8242107F1100385
:101070001146184600F0BBFAD7F820113B1D1A683C
:1010800002F0C4F90246D7F824311344C7F82431DA
:1010900007F110031846FFF777FF03461A46D7F803
:1010A0002431D31AC7F818310023C7F81C3107F5CB
:1010B0008E7207F58C731146184600F07EF90346D0
:1010C0001B68C7F82031D7F8242107F11003114617
:1010D000184600F08CFAD7F820312B4A194602F056
:1010E00095F90246D7F824311344C7F8243107F1A3
:1010F00010031846FFF748FF03465A1ED7F824315D
:101100009A4294BF01230023DBB2002B23D007F1C6
:1011100010031846FFF738FF04461C48FFF740FF4E
:101120000346E31A013BC7F82431184800F06EFA71
:101130000446164800F076FA0546D7F8242107F150
:1011400010031146184600F052FA03461A46294683
:10115000204600F076FA07F110031846FFF7FCFE70
:1011600002460B4B1B689B681946104601F038F984
:1011700007F10C031B68184607F59477BD46BDE8D8
:10118000F08100BFFC7000002C7100004C71000069
:10119000BC0000102DE9F041CEB004AF07F10C0403
:1011A000206007F108000160391D0A601A46FB1C27
:1011B0001A7007F110031846FFF7CEFE064607F136
:1011C00010031846FFF7E0FE8046D7F84001FFF70E
:1011D00011F903461846FFF72BFA0446D7F84001E9
:1011E000FFF714F90546D7F84001FFF7F7F8024674
:1011F00007F108030292019500941B68594A414681
:10120000304602F003F9C7F824010023C7F8203163
:1012100007F110031846FFF7B7FE03461A46D7F842
:101220002431D31AC7F810310023C7F8143107F559
:101230008A7207F588731146184600F0BEF8034617
:101240001B68C7F82031D7F8242107F11003114695
:10125000184600F0CCF9D7F82011FB1C1B783A1D7A
:10126000126802F0D3F80246D7F824311344C7F8C5
:10127000243107F110031846FFF786FE03461A468D
:10128000D7F82431D31AC7F818310023C7F81C3116
:1012900007F58E7207F58C731146184600F08DF82D
:1012A00003461B68C7F82031D7F8242107F1100343
:1012B0001146184600F09BF9D7F820312A4A194602
:1012C00002F0A4F80246D7F824311344C7F82431B9
:1012D00007F110031846FFF757FE03465A1ED7F8CA
:1012E00024319A4294BF01230023DBB2002B23D088
:1012F00007F110031846FFF747FE04461B48FFF7A7
:101300004FFE0346E31A013BC7F82431174800F0AB
:101310007DF90446154800F085F90546D7F82421E3
:1013200007F110031146184600F061F903461A460A
:101330002946204600F085F907F110031846FFF70B
:101340000BFE02460A4B1B689B681946104601F0CB
:1013500047F807F10C031B68184607F59477BD465C
:10136000BDE8F081FC7000002C7100005471000099
:10137000BC00001080B584B000AF78604FF4FA7202
:101380004FF00003C7E9022307F108031946786804
:1013900000F06FF978681037BD4680BD80B582B027
:1013A00000AF786039607B683968184600F081F9D1
:1013B00000BF78680837BD4680BD80B483B000AFF9
:1013C000786039607B681A683B681B689A4201DA6A
:1013D0003B6800E07B6818460C37BD465DF8047B2F
:1013E000704780B483B000AF786039603B68D3E960
:1013F00000237968C1E900237B6818460C37BD4695
:101400005DF8047B704780B483B000AF78607B6880
:10141000D3E90023104619460C37BD465DF8047B1E
:101420007047B0B584B000AF786039603868FFF7B6
:10143000EAFF02460B464FF000044FF000055D0145
:1014400045EAD265540122462B46121A63EB01038A
:101450004FF000044FF000059D0045EA927594009E
:1014600022462B46121841EB03034FF000004FF0C9
:101470000001D90041EA5271D00002460B46C7E98B
:10148000022307F1080319467868FFF781F87868A6
:101490001037BD46B0BD90B585B000AFF860B960FB
:1014A0003A71B868FFF792FC03461C68F868FEF7CB
:1014B000F1FF034619460420FEF7B4FF03461C6003
:1014C00000BF1437BD4690BD80B584B000AF7860D2
:1014D000786800F031F9F860F86800F039F90346EF
:1014E00018461037BD4680BD80B582B000AF786029
:1014F0007868FEF7CFFF034618460837BD4680BD23
:1015000090B585B000AFF860B9603A71B86800F086
:1015100013F903461C68F868FEF7BCFF034619463A
:101520000420FEF77FFF03461C6000BF1437BD4652
:1015300090BD80B582B000AF78603970786800F0F7
:1015400012F900BF0837BD4680BD80B584B000AF3A
:10155000F860B9603A71B868FFF7A6FCF868FEF762
:1015600099FF034619460120FEF75CFF00BF1037C4
:10157000BD4680BD80B584B000AF7860786800F06B
:10158000FEF8F860F86800F006F9034618461037D0
:10159000BD4680BD80B582B000AF78607868FEF748
:1015A00079FF034618460837BD4680BD80B584B034
:1015B00000AFF860B9603A71B86800F0E0F8F86818
:1015C000FEF768FF034619460120FEF72BFF00BF18
:1015D0001037BD4680BD80B582B000AF78603970ED
:1015E000786800F0E3F800BF0837BD4680BD80B5DD
:1015F00082B000AF786039607B683968184600F0C7
:10160000E1F8034618460837BD4680BD80B483B074
:1016100000AF78607B685B6818460C37BD465DF8A4
:10162000047B704780B483B000AF78607B685A68F1
:101630007B681B68134418460C37BD465DF8047B75
:10164000704790B585B000AFF860B9607A60F8680F
:1016500000F0C6F80446B86800F0C2F803467A689D
:101660001946204600F0C7F8034618461437BD4611
:1016700090BD80B483B000AF786039603B68D3E937
:1016800000237968C1E900237B6818460C37BD4602
:101690005DF8047B704780B483B000AF78607B68EE
:1016A000D3E90023104619460C37BD465DF8047B8C
:1016B00070472DE9B04384B000AF78603960386876
:1016C000FFF7E9FF04460D4622462B464FF0000087
:1016D0004FF00001590141EAD261500102460B4628
:1016E000121B63EB05034FF000004FF0000159029D
:1016F00041EAD251500202460B46121945EB030350
:101700004FF000004FF00001990141EA9261900111
:10171000801A61EB030110EB040841EB0509C7E9EE
:10172000028907F1080319467868FEF731FF7868E7
:101730001037BD46BDE8B08380B582B000AF786099
:101740007868FEF7B2FE034618460837BD4680BDEE
:1017500080B483B000AF78607B6818460C37BD4614
:101760005DF8047B704780B582B000AF7860786820
:10177000FEF790FE034618460837BD4680BD80B58B
:1017800082B000AF78607868FEF78FFE0346184697
:101790000837BD4680BD80B483B000AF78607B68F9
:1017A00018460C37BD465DF8047B704780B582B0A3
:1017B00000AF78607868FEF76DFE0346184608377C
:1017C000BD4680BD80B483B000AF786039607A6870
:1017D0003B68134418460C37BD465DF8047B7047E0
:1017E00080B483B000AF78607B6818460C37BD4684
:1017F0005DF8047B7047B0B584B000AFF860B960A5
:101800007A60F86800F01AF80446B86800F016F834
:1018100005467B68184600F01CF803461A46294620
:10182000204600F021F802463B1D1146184600F004
:101830002DF8034618461037BD46B0BD80B483B0BE
:1018400000AF78607B6818460C37BD465DF8047BB6
:10185000704780B483B000AF78607B6818460C375F
:10186000BD465DF8047B704780B586B000AFF86078
:10187000B9607A600123FB757A68B968F86800F08E
:1018800011F8034618461837BD4680BD80B483B0B2
:1018900000AF786039603B6818460C37BD465DF88C
:1018A000047B704780B586B000AFF860B9607A609D
:1018B000BA68FB68D31A7B617B69002B05D07B6912
:1018C0001A46F968786805F063FB7B697A68134407
:1018D00018461837BD4680BD80B582B000AF78602D
:1018E00039607B68012B16D13B684FF6FF7293423B
:1018F00011D10B4B1B6803F00103002B0BD1084BDC
:1019000001221A6007490848FFF7D8F8074A084932
:10191000054804F0D1FF00BF0837BD4680BD00BFB9
:1019200058010010F50700004801001000000010E9
:101930003D08000080B500AF4FF6FF710120FFF7B2
:10194000CBFF80BD80B400AF00BFFDE780B586B09F
:1019500000AFF860B9607A6007F114007B68BA687C
:101960000349FFF729FBFB6818461837BD4680BDC1
:101970003875000080B582B000AF786039607B6850
:10198000012B16D13B684FF6FF72934211D10B4BDE
:101990001B6803F00103002B0BD1084B01221A60D6
:1019A00007490848FFF78AF8074A0849054804F03C
:1019B00083FF00BF0837BD4680BD00BF580100103F
:1019C000F507000048010010000000103D0800006D
:1019D00080B500AF4FF6FF710120FFF7CBFF80BD50
:1019E00080B584B000AFC7E90001D7E9000105F078
:1019F00083F8024607F10C0300EE102A184600F0A7
:101A0000E1F9FB6818461037BD4680BD80B483B04D
:101A100000AF786039603B681A687B681A607B6841
:101A200018460C37BD465DF8047B704790B585B00D
:101A300000AFF860384680E80E00FB681C463B4665
:101A400093E8070084E80700FB680022DA60FB687F
:101A50000C4A1A61FB68BA6A03F1140413460FCBEF
:101A600084E80F00FB680C3307F1200292E80300C2
:101A700083E80300F86800F007F8FB68184614379D
:101A8000BD4690BDC07500002DE9F04387B004AF9E
:101A900078607B680433184600F088F980467B68DC
:101AA0001C687B6814331846FEF7A4FC81467B68EB
:101AB00014331846FEF792FC05467B68143318462B
:101AC000FEF7A4FC06467B680C33184600F06EF95E
:101AD00003460293019600954B4622464146044830
:101AE00001F072FC00BF0C37BD46BDE8F08300BFBB
:101AF000C475000090B593B004AFF860384680E834
:101B00000E0007F114043B6D02936B4607F1480287
:101B100092E8030083E803003B460ECB2046FFF724
:101B200085FF07F114031946F86800F05CF9F868BE
:101B30003C37BD4690BD80B582B000AF78607B6811
:101B4000184600F076F97B6818460837BD4680BD18
:101B500080B582B000AF78607B681846FFF7EBFF76
:101B60007B6818460837BD4680BD80B582B000AF9F
:101B700078607B681846FFF7EBFF7B6818460837EC
:101B8000BD4680BD80B582B000AF78607B681846E6
:101B9000FFF7EBFF7B6818460837BD4680BD80B570
:101BA00082B000AF78607B681846FFF7EBFF7B6878
:101BB00018460837BD4680BD80B582B000AF78605A
:101BC0007B681846FFF7EBFF7B6818460837BD4671
:101BD00080BD80B483B000AF7860002318460C3716
:101BE000BD465DF8047B704780B582B000AF786079
:101BF00039607B68184628231A46002105F0E2F96F
:101C00007868FFF7D9FF78680837BD4680BD80B493
:101C100083B000AF7860002318460C37BD465DF8EE
:101C2000047B704780B582B000AF786039607B6814
:101C3000184628231A46002105F0C4F97868FFF7F2
:101C4000BBFF78680837BD4680BD80B483B000AF65
:101C50007860002318460C37BD465DF8047B70475A
:101C600080B582B000AF78604FF000004FF0000107
:101C7000FFF7B6FE034618460837BD4680BD80B55F
:101C800082B000AF78604FF000004FF00001FFF726
:101C9000A7FE034618460837BD4680BD80B584B010
:101CA00000AFF860B9607A603B60FB681846282393
:101CB0001A46002105F086F9F868FFF77DFFF868FD
:101CC0001037BD4680BD80B584B000AFF860B96004
:101CD0007A603B60FB68184628231A46002105F00D
:101CE00071F9F868FFF768FFF8681037BD4680BDE6
:101CF00080B584B000AFF860B9607A603B60FB6883
:101D0000184628231A46002105F05CF9F868FFF709
:101D100053FFF8681037BD4680BD80B582B000AF74
:101D2000786039607B68184628231A46002105F040
:101D300049F97868FFF740FF78680837BD4680BDED
:101D400080B400AF024B1846BD465DF8047B704777
:101D50000400001080B483B000AF78607B6800227C
:101D60001A70054B1A687B685A607B6818460C37F6
:101D7000BD465DF8047B704760010010B0B582B0CD
:101D800000AF78607B6800251C46002D09DB00232E
:101D90002370002363602046FFF7DCFF0834013D19
:101DA000F3E77B6818460837BD46B0BD80B483B002
:101DB00000AF78607B685B6818460C37BD465DF8FD
:101DC000047B704780B582B000AF786087ED000A71
:101DD0007B683A4611461846FFF718FE7B6818469E
:101DE0000837BD4680BDB0B582B000AF78603960BD
:101DF000386800F09EF802467B681C4615460FCDF9
:101E00000FC40FCD0FC42B6823607B6818460837BA
:101E1000BD46B0BD80B483B000AF78607B681B68FE
:101E200007EE903AB0EE670A0C37BD465DF8047BCA
:101E3000704780B483B000AF78607B68012283F87C
:101E400024207B6818460C37BD465DF8047B70473C
:101E500090B585B000AFF86039727A60FB687A6837
:101E60002146184600F086F8FB6818461437BD4630
:101E700090BD90B585B000AFF86039727A60FB68AC
:101E80007A6821461846FFF7E3FFFB6818461437C7
:101E9000BD4690BD90B585B000AFF86039727A60EC
:101EA000FB687A6821461846FFF7E3FFFB6818468F
:101EB0001437BD4690BD90B585B000AFF86039725B
:101EC0007A60FB687A6821461846FFF7E3FFFB68F3
:101ED00018461437BD4690BD90B585B000AFF86088
:101EE00039727A60FB687A6821461846FFF7E3FF8B
:101EF000FB6818461437BD4690BDF0B583B000AFFF
:101F0000786039607C68386800F01EF8034618462F
:101F100000F00FF803461A4631462046FFF7DCFF73
:101F20002946786800F03EF87B6818460C37BD46B5
:101F3000F0BD80B483B000AF78607B6818460C3782
:101F4000BD465DF8047B704780B483B000AF786015
:101F50007B6818460C37BD465DF8047B704780B43B
:101F600083B000AF78607B6818460C37BD465DF8DB
:101F7000047B704790B585B000AFF86039727A6025
:101F8000FC687868FFF7EBFF034619462046FFF729
:101F90002AFFFB68002283F82420FB6818461437C8
:101FA000BD4690BD80B483B000AF786039707B6867
:101FB00018460C37BD465DF8047B704780B582B08B
:101FC00000AF786039607B68012B2AD13B684FF6FF
:101FD000FF72934225D1154B1B6803F00103002BC0
:101FE00005D1124B01221A60114A124B1A60124B92
:101FF0001B6803F00103002B0BD10F4B01221A6069
:102000000E490F48FEF75AFD0E4A0F490C4804F0DE
:1020100053FCFFF795FE03460C4A13600C48FFF78C
:10202000ADFE00BF0837BD4680BD00BF6C0100108B
:1020300000C002405C01001058010010F5070000CC
:1020400048010010000000103D0800006001001071
:102050006401001080B500AF4FF6FF710120FFF75B
:10206000ADFF80BD80B485B000AF124B1B68BB6074
:10207000104B5B687B600F4B9B689B083B600023A9
:10208000FB60FA683B689A420DD2FB689B00BA6815
:102090001A44FB689B0079680B4412681A60FB685D
:1020A0000133FB60EDE700BF1437BD465DF8047BEC
:1020B000704700BFE400000080B485B000AF0E4B55
:1020C0001B68BB600C4B5B689B087B600023FB605C
:1020D000FA687B689A4209D2FB689B00BA6813448D
:1020E00000221A60FB680133FB60F1E700BF143780
:1020F000BD465DF8047B7047FC00000080B500AF72
:10210000FFF7B0FFFFF7D8FF04F01EFF00BF80BD50
:1021100080B483B000AF03463960FB7100BF0C3759
:10212000BD465DF8047B704780B58CB002AF786027
:102130007B681B687B627B685B683B627B689B6833
:10214000FB617B68DB68BB617B681B697B617B68CB
:102150005B693B617B689B69FB607B68DB69BB609B
:102160000F4801F031F9796A3A6AF869BB6900935E
:1021700003460C4801F028F979693A69F868BB68A8
:1021800000930346084801F01FF9FB681946012037
:10219000FFF7BEFFFFF7D6FB00BF2837BD4680BD67
:1021A00074770000A0770000D477000080B400AFFF
:1021B0001EF0040F0CBFEFF30880EFF30980816974
:1021C000004A10472921000000BFBD465DF8047B8E
:1021D0007047FFFF80B584B000AF1A4BFB60FB680F
:1021E0003B603B6883F3098800BFFB687B607B68CA
:1021F00083F3088800BFFFF781FF134B1B6803F0D0
:102200000103002B14BF01230023DBB2002B01D0FC
:1022100001F02CF903F07AF9FEF7DEFBB860BB6839
:10222000002B04DBB968094801F0CEF803E0B96877
:10223000074801F0C9F8FFF785FB00BF1037BD461E
:1022400080BD00BF00000110F0ED00E00C78000040
:102250004078000080B582B000AF786039607B685C
:10226000012B16D13B684FF6FF72934211D10B4BF5
:102270001B6803F00103002B0BD1084B01221A60ED
:1022800007490848FEF71AFC074A0849054804F0C0
:1022900013FB00BF0837BD4680BD00BF58010010CA
:1022A000F507000048010010000000103D08000084
:1022B00080B500AF4FF6FF710120FFF7CBFF80BD67
:1022C00080B584B000AF284B1B68002B03D0274B90
:1022D00001221A6043E0254B00221A6003F00CF93A
:1022E0000346234A1360224B1A68224B1B689A420A
:1022F00009D9214B1B68596D1D4A10681D4A126887
:10230000821A0A445A651A4B1B681A4A13601B4BFF
:102310001B687B607B68B3FA83F3FB70FB78C3F1C7
:102320001F03FB60FA6813469B0013449B00144A8A
:102330001344BB60BB685B685A68BB685A60BB6883
:102340005A68BB6808339A4204D1BB685B685A6814
:10235000BB685A60BB685B68DB68074A136000BFF4
:102360001037BD4680BD00BFE0010010DC01001049
:10237000E8010010E401001070010010D801001005
:102380007401001080B400AF01231846BD465DF80B
:10239000047B704780B483B000AF786039604FF041
:1023A000FF3318460C37BD465DF8047B7047FFFFCE
:1023B00080B584B000AFF860B9607A607B68194678
:1023C000B86801F05AF8054B1B687A681146B8687E
:1023D0009847034618461037BD4680BD08000010D8
:1023E00080B586B000AF78603960786804F036FE5A
:1023F00003467B6100233B613B68FB60FB68BB607D
:102400007A697968B868FFF7D3FF02463B691344DD
:102410003B613B6918461837BD4680BD80B483B028
:1024200000AF786000BFFDE780B588B000AFB9604D
:102430007A603B600346FB73FE23FB617B68FA69AD
:10244000B3FBF2F2F96901FB02F29B1ABB61BA68B5
:10245000BB691344FA7B1A70FB7B002B06D1BB6966
:102460001A46B9680120FFF7A3FF12E0BB690133E8
:10247000FA699A420DD1FB6901337B61BA687B69C5
:10248000134400221A707B691A46B9680120FFF7CD
:102490008FFF00BF2037BD4680BD80B485B000AF40
:1024A000B9607A603B600346FB737A683B689A4286
:1024B00004D2BA687B681344FA7B1A7000BF1437E1
:1024C000BD465DF8047B704780B485B000AFB9604D
:1024D0007A603B600346FB7300BF1437BD465DF86E
:1024E000047B704780B485B000AF786039607B684A
:1024F000FB60FB681B78002B06D03B685A1E3A60D5
:10250000002B01D0012300E00023002B03D0FB6847
:102510000133FB60EDE7FA687B68D31A184614377D
:10252000BD465DF8047B704780B483B000AF0346BE
:10253000FB71FB792F2B04D9FB79392B01D80123AF
:1025400000E0002318460C37BD465DF8047B704759
:1025500080B584B000AF78600023FB607B681B68A7
:102560001B781846FFF7E0FF0346002B0FD0FA68F0
:1025700013469B0013445B0018467B681B68591C7C
:102580007A6811601B780344303BFB60E6E7FB6828
:1025900018461037BD4680BD90B587B000AFF860D3
:1025A000B9607A603B607B683B617B6B03F0020340
:1025B000002B16D17B6B03F00103002B11D1FB6ABA
:1025C0007B617A693B6B9A420BD2FC687A68531C38
:1025D0007B603B68B9682020A0477B6901337B6141
:1025E000EFE7FB6A002B0ED0FC68FB6A013BFB6245
:1025F000BA6AFB6A134418787A68531C7B603B689C
:10260000B968A047EDE77B6B03F00203002B0ED007
:102610007A683B69D31A3A6B9A4208D9FC687A689F
:10262000531C7B603B68B9682020A047F0E77B68BB
:1026300018461C37BD4690BD80B588B004AFF86021
:10264000B9607A603B603B6B03F00203002B36D12C
:10265000FB6A002B10D03B6B03F00103002B0BD067
:1026600097F82030002B04D13B6B03F00C03002BB8
:1026700002D0FB6A013BFB62FA69BB6A9A420AD24A
:10268000FB691F2B07D8FB695A1CFA61BA6913440E
:1026900030221A70F0E73B6B03F00103002B0ED0E1
:1026A000FA69FB6A9A420AD2FB691F2B07D8FB69B9
:1026B0005A1CFA61BA69134430221A70EBE73B6B7B
:1026C00003F01003002B58D03B6B03F48063002B06
:1026D00016D1FB69002B13D0FA69BB6A9A4203D06A
:1026E000FA69FB6A9A420BD1FB69013BFB61FB690A
:1026F000002B05D07B6A102B02D1FB69013BFB61EB
:102700007B6A102B0FD13B6B03F02003002B0AD107
:10271000FB691F2B07D8FB695A1CFA61BA6913447D
:1027200078221A701FE07B6A102B0FD13B6B03F0ED
:102730002003002B0AD0FB691F2B07D8FB695A1C0A
:10274000FA61BA69134458221A700CE07B6A022BB2
:1027500009D1FB691F2B06D8FB695A1CFA61BA69BB
:10276000134462221A70FB691F2B06D8FB695A1C9E
:10277000FA61BA69134430221A70FB691F2B24D8FE
:1027800097F82030002B07D0FB695A1CFA61BA6910
:1027900013442D221A7018E03B6B03F00403002B46
:1027A00007D0FB695A1CFA61BA6913442B221A70CC
:1027B0000BE03B6B03F00803002B06D0FB695A1CAF
:1027C000FA61BA69134420221A703B6B0393FB6AC7
:1027D0000293FB690193BB6900933B687A68B9680F
:1027E000F868FFF7D9FE034618461037BD4680BD8E
:1027F00080B596B008AFF860B9607A603B6000239E
:102800007B633B6C002B03D17B6D23F010037B6556
:102810007B6D03F48063002B02D03B6C002B34D023
:102820003B6CBA6CB3FBF2F2B96C01FB02F29B1A7F
:1028300087F8333097F83330092B04D897F83330C2
:102840003033DAB20DE07B6D03F02003002B01D0B2
:10285000412200E0612297F833301344DBB20A3B97
:10286000DAB27B6B591C796307F138010B4403F82A
:10287000282C3A6CBB6CB2FBF3F33B643B6C002B33
:1028800003D07B6B1F2B00D8CAE77B6D06933B6D93
:102890000593FB6C0493BB6C039397F8443002934D
:1028A0007B6B019307F1100300933B687A68B9686A
:1028B000F868FFF7C1FE034618463837BD4680BDAD
:1028C00080B596B008AFF860B9607A603B600023CD
:1028D0007B63D7E91023134303D13B6E23F010032E
:1028E0003B663B6E03F48063002B03D0D7E91023D3
:1028F000134339D0D7E91001D7E9142304F092F932
:10290000134687F8333097F83330092B04D897F8FB
:1029100033303033DAB20DE03B6E03F02003002B8E
:1029200001D0412200E0612297F833301344DBB23A
:102930000A3BDAB27B6B591C796307F138010B440F
:1029400003F8282CD7E91423D7E9100104F06AF919
:1029500002460B46C7E91023D7E91023134303D0DF
:102960007B6B1F2B00D8C5E73B6D3A6E0692FA6D64
:102970000592BA6D0492039397F8483002937B6BEB
:10298000019307F1100300933B687A68B968F8680F
:10299000FFF752FE034618463837BD4680BD80B467
:1029A00085B000AF78604FF07E53FB600023BB60C2
:1029B000BA687B689A420BD2D7ED037AB2EE047AFA
:1029C00067EE877AC7ED037ABB680133BB60EFE738
:1029D000FB6807EE903AB0EE670A1437BD465DF823
:1029E000047B704780B52DED028B90B002AF78610B
:1029F0003961FA60BB6087ED010A354B7B63D7ED27
:102A0000017AF5EEC07AF1EE10FA07D5314B7B630F
:102A1000D7ED017AF1EE677AC7ED017AFB6C03F42A
:102A20008063002B01D10623BB640623FB6107F101
:102A30001C03194607F1480000F004FD03461B681B
:102A4000BB64BB6C244A9B001344D3ED007A97ED22
:102A5000017A77EE277AC7ED017AD7ED017AFDEE9C
:102A6000E77A17EE903A3B633B6B07EE903AF8EE4D
:102A7000E77AC7ED0B7A97ED017AD7ED0B7A37EE4F
:102A8000678ABB6C1846FFF78AFFF0EE407A68EE63
:102A9000277AC7ED0A7AD7ED0A7AFDEEE77A17EEC4
:102AA000903A7B623A69FB68D0187B6A01933B6B72
:102AB00000937B6B094AB96800F0A8FC38623A6A57
:102AC000FB68134418463837BD46BDEC028B80BD09
:102AD0009478000098780000747800009C780000DA
:102AE000B0B5A0B00AAFF860B9607A603B6000236F
:102AF0007B64BB68002B01D1A24BFB603B681B7859
:102B0000002B00F04F843B681B78252B0DD0FC6810
:102B10003B6818787A6C531C7B647B68B968A04763
:102B20003B6801333B6000F03BBC3B6801333B60DA
:102B300000237B653B681B78203B102B56D801A2F5
:102B400052F823F0C52B0000ED2B0000ED2B000008
:102B5000D92B0000ED2B0000ED2B0000ED2B000029
:102B6000ED2B0000ED2B0000ED2B0000ED2B000005
:102B7000B12B0000ED2B00009D2B0000ED2B000081
:102B8000ED2B0000892B00007B6D43F001037B657A
:102B90003B6801333B600123BB642AE07B6D43F05B
:102BA00002037B653B6801333B600123BB6420E08B
:102BB0007B6D43F004037B653B6801333B6001237D
:102BC000BB6416E07B6D43F008037B653B68013313
:102BD0003B600123BB640CE07B6D43F010037B651D
:102BE0003B6801333B600123BB6402E00023BB640C
:102BF00000BFBB6C002B00D09CE700233B653B680B
:102C00001B781846FFF790FC0346002B05D03B4687
:102C10001846FFF79DFC386518E03B681B782A2BA7
:102C200014D1BB6E1A1DBA661B683B633B6B002B4D
:102C300007DA7B6D43F002037B653B6B5B423B65D0
:102C400001E03B6B3B653B6801333B600023FB6469
:102C50003B681B782E2B24D17B6D43F480637B650E
:102C60003B6801333B603B681B781846FFF75CFC10
:102C70000346002B05D03B461846FFF769FCF86475
:102C80000FE03B681B782A2B0BD1BB6E1A1DBA666E
:102C90001B68FB62FB6A23EAE373FB643B68013356
:102CA0003B603B681B78683B122B67D801A252F847
:102CB00023F000BF272D00007D2D00005D2D0000BA
:102CC0007D2D0000012D00007D2D00007D2D0000D8
:102CD0007D2D00007D2D00007D2D00007D2D00004C
:102CE0007D2D00004D2D00007D2D00007D2D00006C
:102CF0007D2D00007D2D00007D2D00006D2D00003C
:102D00007B6D43F480737B653B6801333B603B68BC
:102D10001B786C2B34D17B6D43F400737B653B686F
:102D200001333B602CE07B6D43F080037B653B68A7
:102D300001333B603B681B78682B25D17B6D43F0EA
:102D400040037B653B6801333B601DE07B6D43F4D2
:102D500080737B653B6801333B6016E07B6D43F419
:102D600000737B653B6801333B600EE07B6D43F491
:102D700080737B653B6801333B6006E000BF04E085
:102D800000BF02E0C924000000BF3B681B78253B60
:102D9000532B00F2F88201A252F823F06F330000A7
:102DA000873300008733000087330000873300003B
:102DB000873300008733000087330000873300002B
:102DC000873300008733000087330000873300001B
:102DD000873300008733000087330000873300000B
:102DE00087330000873300008733000087330000FB
:102DF00087330000873300008733000087330000EB
:102E000087330000873300008733000087330000DA
:102E100087330000873300008733000087330000CA
:102E20007B310000873300008733000087330000C8
:102E300087330000873300008733000087330000AA
:102E4000873300008733000087330000873300009A
:102E5000873300008733000087330000873300008A
:102E60008733000087330000ED2E00008733000019
:102E7000873300008733000087330000873300006A
:102E8000873300008733000087330000873300005A
:102E9000ED2E0000B9310000ED2E00008733000058
:102EA0007B3100008733000087330000ED2E0000E7
:102EB000873300008733000087330000873300002A
:102EC00087330000ED2E0000273300008733000019
:102ED000873300004132000087330000ED2E0000F0
:102EE0008733000087330000ED2E00003B681B781D
:102EF000782B03D03B681B78582B02D110233B64FE
:102F000013E03B681B786F2B02D108233B640CE075
:102F10003B681B78622B02D102233B6405E00A2345
:102F20003B647B6D23F010037B653B681B78582B5B
:102F300003D17B6D43F020037B653B681B78692BD5
:102F400007D03B681B78642B03D07B6D23F00C0308
:102F50007B657B6D03F48063002B03D07B6D23F0D6
:102F600001037B653B681B78692B04D03B681B78A9
:102F7000642B40F08E807B6D03F40073002B2FD008
:102F8000BB6E073323F0070303F10802BA66D3E9E7
:102F90000023C7E90423D7E90423002A73F10001C1
:102FA00002DA524263EB4303104619467B69DB0F9A
:102FB000DCB23B6C1A464FF000037D6D08953D6D09
:102FC0000795FD6C0695CDE904230294CDE9000137
:102FD0007B687A6CB968F868FFF772FC7864C8E0BF
:102FE0007B6D03F48073002B1ED0BB6E1A1DBA6676
:102FF0001B68FB61FB69002BB8BF5B421946FB698C
:10300000DB0FDBB27A6D05923A6D0492FA6C039293
:103010003A6C0292019300917B687A6CB968F86807
:10302000FFF7E6FB7864A4E07B6D03F04003002B20
:1030300005D0BB6E1A1DBA661B68DBB20EE07B6D55
:1030400003F08003002B05D0BB6E1A1DBA661B6807
:103050001BB203E0BB6E1A1DBA661B683B623B6A7B
:10306000002BB8BF5B4219463B6ADB0FDBB27A6DBF
:1030700005923A6D0492FA6C03923A6C02920193B3
:1030800000917B687A6CB968F868FFF7B1FB7864E7
:103090006FE07B6D03F40073002B20D0BB6E073311
:1030A00023F0070303F10802BA66D3E90023396C61
:1030B00008464FF000017C6D08943C6D0794FC6C51
:1030C0000694CDE9040100210291CDE900237B683B
:1030D0007A6CB968F868FFF7F3FB786449E07B6DB8
:1030E00003F48073002B16D0BB6E1A1DBA661B68E2
:1030F0007A6D05923A6D0492FA6C03923A6C0292E0
:103100000022019200937B687A6CB968F868FFF737
:103110006FFB78642DE07B6D03F04003002B05D03E
:10312000BB6E1A1DBA661B68DBB20EE07B6D03F046
:103130008003002B05D0BB6E1A1DBA661B689BB2BC
:1031400003E0BB6E1A1DBA661B687B627B6D05933C
:103150003B6D0493FB6C03933B6C02930023019340
:103160007B6A00937B687A6CB968F868FFF740FB6C
:1031700078643B6801333B6012E1BB6E073323F098
:10318000070303F10802BA66D3E900231046194683
:1031900003F09AFB02467B6D0193FB6C009300EEFB
:1031A000102A7B687A6CB968F868FFF71BFC7864B2
:1031B0003B6801333B60F3E00123FB637B6D03F06D
:1031C0000203002B13D1FB6B5A1CFA633A6D9A422F
:1031D0008CBF01230023DBB2002B08D0FC687A6C83
:1031E000531C7B647B68B9682020A047EBE7FC6830
:1031F000BB6E1A1DBA661B68D8B27A6C531C7B640E
:103200007B68B968A0477B6D03F00203002B13D0E5
:10321000FB6B5A1CFA633A6D9A428CBF0123002360
:10322000DBB2002B08D0FC687A6C531C7B647B6893
:10323000B9682020A047EBE73B6801333B60AFE073
:10324000BB6E1A1DBA661B68BB63FB6C002B01D0FA
:10325000FB6C01E04FF0FF331946B86BFFF742F902
:1032600078637B6D03F48063002B07D07A6BFB6C73
:103270009A4201D27B6B00E0FB6C7B637B6D03F0B9
:103280000203002B13D17B6B5A1C7A633A6D9A426E
:103290008CBF01230023DBB2002B08D0FC687A6CC2
:1032A000531C7B647B68B9682020A047EBE7BB6BAD
:1032B0001B78002B0BD07B6D03F48063002B04D0B4
:1032C000FB6C5A1EFA64002B01D0012300E000239E
:1032D000002B0BD0FC68BB6B5A1CBA6318787A6C55
:1032E000531C7B647B68B968A047E0E77B6D03F003
:1032F0000203002B13D07B6B5A1C7A633A6D9A42FF
:103300008CBF01230023DBB2002B08D0FC687A6C51
:10331000531C7B647B68B9682020A047EBE73B68BF
:1033200001333B603CE008233B657B6D43F02103A8
:103330007B65002387F82B30BB6E1A1DBA661B68AD
:103340001A467B6D05933B6D0493FB6C039310232E
:1033500002930023019300927B687A6CB968F86845
:10336000FFF746FA78643B6801333B6018E0FC687D
:103370007A6C531C7B647B68B9682520A0473B6846
:1033800001333B600CE0FC683B6818787A6C531C96
:103390007B647B68B968A0473B6801333B6000BF32
:1033A000FFF7ACBBFC687A6C7B689A4202D37B68FF
:1033B0005A1E00E07A6C7B68B9680020A0477B6CDD
:1033C00018465837BD46B0BD0FB480B5C4B002AF83
:1033D00007F58A73C7F800313946D7F800310093F2
:1033E000D7F810314FF0FF320748FFF779FBC7F8E5
:1033F0000401D7F80431184607F58477BD46BDE8C7
:10340000804004B0704700BF292400000CB480B590
:1034100086B002AF7860396007F11C03BB60BB68FF
:103420000093BB693A6879680548FFF759FBF86073
:10343000FB6818461037BD46BDE8804002B07047B3
:103440009B24000080B483B000AF786039603B6893
:103450001A687B681B689A4201D23B6800E07B686F
:1034600018460C37BD465DF8047B704780B400AF4A
:1034700000BFBD465DF8047B704780B582B000AFE9
:10348000786039603968786800F006F8034600BF54
:1034900018460837BD4680BDB0B58CB000AF786027
:1034A00039602C4B1B6803F00103002B0CBF012378
:1034B0000023DBB2002B01D03B6847E0264B1B68A2
:1034C000002B1DD1254BBB600423FB6003233B6114
:1034D0000123BB6207F108037B62BC6A7D6A204658
:1034E0002946ABBE04463C623B6AFB62FB6AB3F111
:1034F000FF3F02D14FF0FF3328E0174AFB6A136009
:10350000154B1B68BB607B68FB603B683B61052318
:10351000FB6107F10803BB61FC69BD6920462946D0
:10352000ABBE04467C617B69FB62FB6AB3F1FF3F83
:1035300002D14FF0FF3309E03B68FA6A9A4202D1A8
:103540004FF0FF3302E03A68FB6AD31A184630376F
:10355000BD46B0BDF0ED00E0EC010010C078000009
:1035600080B483B000AF78600C4B1B68DA680B4BFB
:103570001B6842F08072DA60094B1B6800225A60B7
:10358000074B1B681A68064B1B6842F001021A6061
:1035900000BF0C37BD465DF8047B70471400001077
:1035A0001000001080B483B000AF7860044B1B683B
:1035B0005B6818460C37BD465DF8047B704700BF5A
:1035C0001000001080B400AFDFF81C00016841F467
:1035D00070010160BFF34F8FBFF36F8F00BFBD4617
:1035E0005DF8047B7047000088ED00E080B483B094
:1035F00000AF7860044A7B68136000BF0C37BD469B
:103600005DF8047B704700BFF001001080B400AF8C
:10361000034B1B681846BD465DF8047B704700BF2E
:10362000F001001080B584B000AFC7E90001D7E910
:10363000000103F061FA024607F10C0300EE102AC4
:10364000184600F06AF8FB6818461037BD4680BD82
:1036500080B584B000AFC7E90001D7E9000103F0ED
:103660004BFA024607F10C0300EE102A184600F050
:1036700005F8FB6818461037BD4680BD80B582B09E
:1036800000AF786087ED000A7B683A46114618461D
:10369000FEF7BCF97B6818460837BD4680BD80B58B
:1036A00086B000AF7860786800F007F8F0EE407AF6
:1036B000B0EE670A1837BD4680BD80B485B000AF54
:1036C000F86039723A713B70FB681B6807EE903AFC
:1036D000B0EE670A1437BD465DF8047B704780B5CD
:1036E0002DED028B82B000AF786039607B6893ED7E
:1036F000008A3B681846FFF7D2FFF0EE407AB4EE3E
:10370000E78AF1EE10FA94BF01230023DBB21846DA
:103710000837BD46BDEC028B80BD80B582B000AFDE
:10372000786087ED000A7B683A4611461846FEF736
:103730006DF97B6818460837BD4680BD80B586B0F8
:1037400000AF7860786800F007F8F0EE407AB0EEED
:10375000670A1837BD4680BD80B485B000AFF860F9
:1037600039723A713B70FB681B6807EE903AB0EE15
:10377000670A1437BD465DF8047B704780B52DEDB0
:10378000028B82B000AF786039607B6893ED008A6D
:103790003B681846FFF7D2FFF0EE407AB4EEE78AB6
:1037A000F1EE10FA94BF01230023DBB2184608376C
:1037B000BD46BDEC028B80BD80B483B000AF7860A5
:1037C00039607B681A683B681B689A420CBF01230A
:1037D0000023DBB218460C37BD465DF8047B70470A
:1037E00080B582B000AF78607968034801F00EFFC1
:1037F00000BF0837BD4680BD4801001080B483B0CB
:1038000000AF7860044A7B68136000BF0C37BD4688
:103810005DF8047B704700BFF401001080B400AF76
:10382000034B1B681846BD465DF8047B704700BF1C
:10383000F401001080B582B000AF78607B68184654
:10384000FCF74CFE7B6818460837BD4680BDFFFF7D
:1038500080B584B000AF07F10803184601F0FFFE01
:1038600007F108023B4611461846FDF762FA3B464F
:1038700019460848FCF7A8FF074801F0FDFE03467B
:10388000002B02D0044801F007FF00BF1037BD46EF
:1038900080BD00BF08020010F801001080B584B0A0
:1038A00000AFF860B9607A60FB68BA68796818465A
:1038B00000F005F800BFF8681037BD4680BDB0B510
:1038C00088B000AFF860B9607A60BB68D3E90023C4
:1038D000C7E9062307F118031846FCF723FE7B68A7
:1038E0001B681A464FF0000302FB01F500FB03F4CE
:1038F0002C44A0FB0223E1180B46C7E9042307F17F
:1039000010031946F868FCF743FEF8682037BD46F7
:10391000B0BD80B588B000AFF860B9607A60BB68B0
:10392000D3E90023C7E9062307F118031846FCF77B
:10393000F9FD7B681B681A464FF0000303F022F97B
:1039400002460B46C7E9042307F110031946F8683D
:10395000FCF71EFEF8682037BD4680BD80B58CB0F0
:1039600000AF78601648FFF71DFEF862154BD3E9EB
:103970000023C7E90823144B1A68FB6AB3FBF2F172
:1039800002FB01F29B1AFB6107F1100307F11C0116
:103990000E4A1846FFF782FF07F1080307F11001EE
:1039A0000B4A1846FFF7B5FF7B6807F1080207F1DD
:1039B00020011846FDF700F978683037BD4680BD14
:1039C0001002001008020010280000102000001053
:1039D000CC7D000090B58BB000AFF8601D48FFF7BC
:1039E000BFFDFFF71BFF03461A6808321268F9682B
:1039F00049681846904703467B6107F1140318464F
:103A000001F060FE03463B613B69134AA2FB0323BE
:103A10009B09124A136007F12003184601F05EFE6D
:103A200007F1180307F120020D491846FFF736FF8A
:103A30000C4C3B4607F1100207F118011846FFF73E
:103A400068FFD7E90023C4E9002300BF2C37BD4637
:103A500090BD00BF10020010D34D6210280000106E
:103A6000CC7D00002000001080B582B000AF7860EF
:103A700039603968034801F03EFE00BF0837BD4693
:103A800080BD00BFF801001080B582B000AF786043
:103A90007B6804331846FFF7CDFE7B68184608376D
:103AA000BD4680BDB0B58CB000AF786039602249AA
:103AB0007868FCF731FE214B1B685B68002B14BF54
:103AC00001230023DBB2002B31D0FFF79FFD04461A
:103AD000236804331D684FF0FF33BB6007F1080310
:103AE00004331749184601F021FE3B681B7AFB613D
:103AF00007F1080319462046A84707F108031846AE
:103B0000FFF7C2FF0723FB620C4B1B6800229A6081
:103B10000A4B1B681968094B1B68FA6A0A431A604A
:103B200007F12003074A79681846FCF70FFE00BF2B
:103B300078683037BD46B0BD3477000018000010FB
:103B4000513800003471000080B582B000AF786059
:103B5000786801F015FE034618460837BD4680BD5B
:103B600080B584B000AF786039607B681846FEF796
:103B700051F9B0EE407A3B6807EE903AF8EEE77AFA
:103B800077EE677A07F10C03B0EE670A184600F08B
:103B900031F8FB6818461037BD4680BD80B52DED65
:103BA000028B84B000AF786039607B681846FEF7FE
:103BB00031F9B0EE408A3B681846FEF72BF9F0EE7B
:103BC000407AC7ED037A07F10C031846FFF7B6FDFC
:103BD000B0EE407AC8EE077A07F10803B0EE670A44
:103BE000184600F007F8BB6818461037BD46BDEC14
:103BF000028B80BD80B582B000AF786087ED000A8F
:103C00007B683A4611461846FDF700FF7B68184668
:103C10000837BD4680BD80B582B000AF7860786857
:103C200000F005F8034618460837BD4680BD80B54C
:103C300082B000AF78607B681846FEF7EBF8F0EED4
:103C4000407AFCEEE77A17EE903A18460837BD4600
:103C500080BDFFFF90B589B000AF786039604FF04C
:103C600001004FF00001FFF7DDFC0346FB6007F1A8
:103C70000C023B4611461846FFF780FD0346002B19
:103C800002D04FF0FF3342E0FFF7C8FD03461A6849
:103C90000832126879684968184690470346BB6045
:103CA0003A4607F1080311461846FFF777FF034627
:103CB0007B6107F1140301211846FFF751FF03460A
:103CC0003B6107F110031846FFF73EFFF86107F16B
:103CD00008031846FFF79FFF04463B461846FFF7C8
:103CE0009AFF0346B4FBF3F203FB02F3E31ABB6152
:103CF000FB69B3F1807F05D36FF07F43FB616FF009
:103D00007F43BB61044B1B68FA695A60BB69184664
:103D10002437BD4690BD00BF1800001080B483B0AA
:103D200000AF786039607B683A681A607B6801226E
:103D30005A6078680C37BD465DF8047B7047FFFF1A
:103D400080B582B000AF7860054B1B6803F5D07377
:103D50001946786801F02FFD78680837BD4680BDA8
:103D60001402001080B582B000AF7860054B1B686C
:103D700003F582731946786801F01DFD78680837ED
:103D8000BD4680BD1402001080B582B000AF7860DF
:103D9000054B1B6803F5D4731946786801F00BFDD9
:103DA00078680837BD4680BD1402001080B582B027
:103DB00000AF7860054B1B6803F58073194678687F
:103DC00001F0F9FC78680837BD4680BD1402001088
:103DD00080B582B000AF7860054B1B6803F5847333
:103DE0001946786801F0E7FC78680837BD4680BD61
:103DF0001402001080B582B000AF7860054B1B68DC
:103E000003F5DA731946786801F0D5FC786808374D
:103E1000BD4680BD1402001080B483B000AF78604E
:103E20007B685B6818460C37BD465DF8047B7047BD
:103E300080B586B000AF786039600F4B1B6803F126
:103E4000C40207F108031146184601F0B4FC3A68B1
:103E500007F1100311461846FFF760FF07F108004D
:103E600007F1100393E8060000F0C2FD0346184670
:103E70001837BD4680BD00BF1402001080B483B067
:103E800000AF78607B681B687A6852681A607B684C
:103E900018460C37BD465DF8047B704780B586B088
:103EA00000AF78603960104B1B6803F1C40207F162
:103EB00008031146184601F07EFC3A6807F110032A
:103EC00011461846FFF72AFF07F1080007F1100313
:103ED00093E8060000F076FD03461846FFF7CEFF94
:103EE00000BF1837BD4680BD1402001080B586B0F3
:103EF00000AF78603960104B1B6803F1C40207F112
:103F000008031146184601F056FC3A6807F1100301
:103F100011461846FFF702FF07F1080007F11003EA
:103F200093E8060000F038FD03461846FFF7A6FFA9
:103F300000BF1837BD4680BD1402001080B483B0A6
:103F400000AF786039603B680B3B162B3CD801A270
:103F500052F823F0BD3F0000C93F0000C93F0000F8
:103F6000C93F0000C93F0000B73F0000C93F000043
:103F7000C93F0000C93F0000C93F0000C93F000021
:103F8000C93F0000C93F0000C93F0000C93F000011
:103F9000C93F0000C93F0000C93F0000C93F000001
:103FA000C93F0000B13F0000C93F0000C33F00000F
:103FB0007B685B690AE07B689B6907E07B681B693B
:103FC00004E07B689B6801E07B68DB6818460C377F
:103FD000BD465DF8047B704780B483B000AF0346F4
:103FE000FB80FB8818460C37BD465DF8047B7047A4
:103FF00080B483B000AF0346FB71FB7918460C37E1
:10400000BD465DF8047B704780B483B000AF0346C3
:10401000FB71FB7918460C37BD465DF8047B704791
:1040200080B483B000AF0346FB80FB8818460C3792
:10403000BD465DF8047B704780B483B000AF034693
:10404000FB71FB7918460C37BD465DF8047B704761
:1040500080B483B000AF0346FB71FB7918460C3780
:10406000BD465DF8047B704780B483B000AF7860D4
:104070007B6818460C37BD465DF8047B7047FFFF30
:10408000B0B5B2B002AF7860B54B1B68C7F8BC30B2
:104090007B685B6807F120041D460FCD0FC42B68B9
:1040A00023604FF00003FB614FF00003BB614FF052
:1040B00000037B614FF000033B614FF00003FB60A6
:1040C0004FF00003BB6007F134031846FFF74AFEC8
:1040D0000020FFF781FF03461946A24B07F1340089
:1040E0000CCB01F07BFB03461846FFF7C7FE07F138
:1040F0003C031846FFF76CFE0020FFF779FF0346EC
:104100001946994B07F13C000CCB01F067FB0346C5
:104110001846FFF7B3FE07F144031846FFF76AFE9F
:104120000020FFF771FF03461946904B07F144004A
:104130000CCB01F053FB03461846FFF79FFE00200F
:10414000FFF76EFF03461A46D7F8BC30C3F80C21C0
:10415000D7F8BC300022C3F88020D7F8BC3000224A
:10416000C3F8A02007F14C031846FFF7E9FD804A89
:1041700007F14C0306CA184600F00EFC0346184629
:10418000FFF77CFEBB8C012B03D097F82830002B67
:1041900002D0786800F040FCBB8C1846FFF740FF67
:1041A00003461A46D7F8BC30C3F80C21BB8C002B51
:1041B00002D0012B07D00FE007F11C036D49184610
:1041C00001F023FB08E007F1200207F11C03114670
:1041D000184601F01AFB00BFD7F8BC3003F180018C
:1041E000D7F8BC3003F18402D7F8BC3003F18C005F
:1041F000D7F8BC30883300240194009303467868D4
:1042000000F0D6FA0346BB61D7F8BC3003F1A00139
:10421000D7F8BC3003F1A402D7F8BC3003F1AC00EE
:10422000D7F8BC30A8330124019400930346786882
:1042300000F0BEFA03467B6107F154031846FFF70E
:1042400091FD97F82C3019464B4B07F154000CCBDD
:1042500001F0C4FA03461846FFF710FE07F15C03AD
:104260001846FFF7A3FD97F833301846FFF7E4FE32
:1042700003461946414B07F15C000CCB01F0AEFA46
:1042800003461846FFF7FAFD07F164031846FFF7E7
:104290007BFD97F832301946394B07F164000CCB9F
:1042A00001F09CFA03461846FFF7E8FD07F16C039E
:1042B0001846FFF78DFD97F82F301846FFF7C8FE18
:1042C000034619462F4B07F16C000CCB01F086FA20
:1042D00003461846FFF7D2FD07F174031846FFF7AF
:1042E00089FD97F831301946274B07F174000CCB44
:1042F00001F074FA03461846FFF7C0FD7B8D002BD2
:1043000002D0012B03D005E0FB693B6102E0BB69F1
:104310003B6100BF97F82E30022B0CD0022B0DD83A
:10432000002B02D0012B03D008E0FB69FB6005E005
:10433000BB69FB6002E07B69FB6000BF97F830302F
:10434000022B23D0022B24D8002B02D0012B03D028
:104350001FE0FB69BB601CE0BB69BB6019E000BFEC
:10436000140200100C7E00002C7E00003C7E000039
:10437000F47D0000D07D0000047E00001C7E000063
:10438000147E0000247E0000347E00007B69BB6048
:1043900000BF97F82C207C6807F1100311461846DF
:1043A00001F046FAA06097F832207C6807F110030C
:1043B0001146184601F03CFAE06097F83330184691
:1043C000FFF73AFE03465A1C7C6807F110031146BA
:1043D000184601F04CFA206197F82F301846FFF785
:1043E00037FE03461A467C6807F10C03114618464F
:1043F00001F01EFA606197F831207C6807F108032C
:104400001146184601F014FAA061D7F8BC3000221A
:10441000C3F8B0217B6803F108044FF014004FF09B
:104420000001FFF715F90346FB6707F17C03194606
:10443000204601F03AFA0346002B07D00020FFF790
:1044400013FE0246D7F8BC301A6001E14FF01400A9
:104450004FF00001FFF7FCF80346C7F880307B6897
:1044600003F1080207F180031146184600F05AF9DB
:104470000346002B16D07B6803F108044FF0280098
:104480004FF00001FFF7E4F80346C7F8843007F166
:1044900084031946204601F008FA0346002B01D098
:1044A000012300E00023002B08D04FF48050FFF7D9
:1044B000DBFD0246D7F8BC301A60C9E04FF0280097
:1044C0004FF00001FFF7C4F80346C7F888307B6857
:1044D00003F1080207F188031146184600F022F99B
:1044E0000346002B16D07B6803F108044FF03C0014
:1044F0004FF00001FFF7ACF80346C7F88C3007F126
:104500008C031946204601F0D0F90346002B01D058
:10451000012300E00023002B08D04FF40050FFF7E8
:10452000A3FD0246D7F8BC301A6091E04FF03C0082
:104530004FF00001FFF78CF80346C7F890307B6816
:1045400003F1080207F190031146184600F0EAF85B
:104550000346002B16D07B6803F108044FF050008F
:104560004FF00001FFF774F80346C7F8943007F1E5
:1045700094031946204601F098F90346002B01D018
:10458000012300E00023002B08D04FF44050FFF738
:104590006BFD0246D7F8BC301A6059E04FF050006E
:1045A0004FF00001FFF754F80346C7F898307B68D6
:1045B00003F1080207F198031146184600F0B2F81B
:1045C0000346002B16D07B6803F108044FF064000B
:1045D0004FF00001FFF73CF80346C7F89C3007F1A5
:1045E0009C031946204601F060F90346002B01D0D8
:1045F000012300E00023002B08D04FF48040FFF798
:1046000033FD0246D7F8BC301A6021E07B6803F125
:1046100008044FF064004FF00001FFF719F803465B
:10462000C7F8A03007F1A0031946204601F05BF956
:104630000346002B0CD04FF48040FFF715FD0246D7
:10464000D7F8BC301A60D7F8BC300322C3F8B021C9
:1046500007F1A4031846FFF785FB7B8D1846FFF78B
:10466000BBFC034619461D4B07F1A4000CCB01F01F
:10467000B5F803461846FFF701FC07F1AC031846EE
:10468000FFF7A6FB97F82E301846FFF7B1FC03465C
:104690001946134B07F1AC000CCB01F09FF8034611
:1046A0001846FFF7EBFB07F1B4031846FFF7A2FB30
:1046B00097F830301846FFF7A7FC03461946094B18
:1046C00007F1B4000CCB01F089F803461846FFF758
:1046D000D5FB00BFC037BD46B0BD00BF0C7E00009B
:1046E0002C7E00003C7E000080B483B000AF786078
:1046F0007B681B6818460C37BD465DF8047B704725
:1047000090B583B000AF78607868FFF7EDFF04469E
:10471000786801F038F903469B00234418460C37AB
:10472000BD4690BD80B52DED028B82B000AF7860A4
:1047300039607B6893ED008A3B68184600F010F8FA
:10474000F0EE407AB4EEE78AF1EE10FA94BF01235E
:104750000023DBB218460837BD46BDEC028B80BD96
:1047600080B586B000AF7860786800F007F8F0EEAA
:10477000407AB0EE670A1837BD4680BD80B485B078
:1047800000AFF86039723A713B70FB68D3ED007A84
:104790009FED067AC7EE876AF0EE667AB0EE670A9A
:1047A0001437BD465DF8047B704700BF0024744990
:1047B00080B59AB002AFF860B9607A603B60FB6880
:1047C0005A68FB6E5B00134406337B657B6D1B7878
:1047D000002B00F0CB807B6818687B6D5B78591EDE
:1047E000654B0CCB01F09DF802467B681A60FB68B4
:1047F0005B689B88002B13D1FB6E002B10D17B6D67
:104800005B7819465D4801F09FF803467B6207F12B
:10481000240207F120031146184600F0F6FF12E0CB
:10482000FB685B681A467B6D5B781946104601F0A1
:104830008BF80346BB6207F1280207F120031146FB
:10484000184600F0E2FF0023FB6507F11803002281
:104850001A605A600423FB61494BBB6107F11803DE
:104860003B65386DFFF740FFB865386DFFF748FFCF
:10487000F864BA6DFB6C9A423FD0BB6D1B68BB6499
:104880000122BB6C9A4007F120031146184601F043
:1048900086F803467B614FF09C004FF00001FEF765
:1048A000D7FE0346FB6207F1140207F12C03114601
:1048B0001846FFF737FF0346002B14D04FF4A070C3
:1048C0004FF00001FEF7C4FE03463B6307F13002E0
:1048D00007F114031146184601F07FF80346002B38
:1048E00001D0012300E00023002B02D0BB6CFB654C
:1048F00003E0BB6D0433BB65BBE7FB6D002B13D13D
:1049000007F138000023009340F297231D4A1E4907
:10491000FBF72EFD07F1380207F134031B49184657
:10492000FDF714F8FDF70EF87B681868184B0CCBF0
:10493000F96D01F070F802467B681A60BB680122CD
:104940001A603B68AA221A603B6855221A60BB6E47
:104950001B68104A06CA184601F070F8034683F037
:104960000103DBB2002B01D000BFF0E73B6A184621
:104970006037BD4680BD00BFD47D0000D07D000003
:10498000407F0000407900004C790000A0790000D1
:10499000DC7D0000E47D000080B584B000AFF860ED
:1049A0003B1D83E80600FB6858683B1D93E8060042
:1049B00001F055F80246FB685A60FB68184610374C
:1049C000BD4680BD80B584B000AFF8603B1D83E874
:1049D0000600FB6858683B1D93E8060001F050F89C
:1049E0000246FB685A60FB6818461037BD4680BD1A
:1049F00080B584B000AFF8603B1D83E80600FB681B
:104A00001B6818683B1D93E8060001F017F8034681
:104A100018461037BD4680BD80B590B002AF7860B3
:104A200007F10C031846FFF78BF97B685B681B687E
:104A3000BB604FF001004FF00001FEF709FE034696
:104A40007B6107F1080207F1140311461846FEF7CF
:104A500046FE0346002B14D04FF014004FF0000127
:104A6000FEF7F6FD0346BB6107F1180207F10803E4
:104A700011461846FEF733FE0346002B01D00123F2
:104A800000E00023002B07D0364A07F10C0306CACA
:104A90001846FFF781FF46E04FF014004FF0000189
:104AA000FEF7D6FD0346FB6107F1080207F11C0380
:104AB00011461846FEF713FE0346002B14D04FF0A4
:104AC00019004FF00001FEF7C3FD03463B6207F1FA
:104AD000200207F1080311461846FEF700FE0346C0
:104AE000002B01D0012300E00023002B07D01D4A3A
:104AF00007F10C0306CA1846FFF764FF13E007F13D
:104B000028000023009340F2BB23174A1749FBF704
:104B10002FFC07F1280207F1240315491846FCF77A
:104B200015FFFCF70FFF134A07F10C0306CA1846DE
:104B3000FFF748FF03461846FFF7A0F90E4A07F1B2
:104B40000C0306CA1846FFF753FF034683F0010320
:104B5000DBB2002B01D000BFF0E700BF3837BD4605
:104B600080BD00BFEC7D0000947A00004C7900000D
:104B7000B07A0000F47D0000FC7D000080B58CB0B0
:104B800000AF78607B681B6808331B6807F108007A
:104B900002227968984700BF3037BD4680BD80B497
:104BA00083B000AF78607B681B7918460C37BD4630
:104BB0005DF8047B704780B483B000AF78607B6899
:104BC0005B7918460C37BD465DF8047B704780B5AD
:104BD00082B000AF786039607B68184628231A4697
:104BE000002102F0EFF97868FCF7E6FF78680837F3
:104BF000BD4680BD90B59BB004AFF860B960134668
:104C0000FB71FB79072B2DD907F134031F49184697
:104C1000FBF782FD07F140031D491846FBF71FFD16
:104C200007F14800002300936D231A4A1A49FBF745
:104C30009FFB07F1100407F1480302936A4607F14E
:104C4000400393E8030082E8030007F134030ECB2E
:104C50002046FCF74FFF07F110031946F868FDF7EF
:104C60004CF90FE00D4BF9790CCBB86800F076F8F1
:104C7000FB68184628231A46002102F0A3F9F868B9
:104C8000FCF79AFFF8685C37BD4690BDC07D000018
:104C9000407B0000847B0000947B0000447E000089
:104CA00080B584B000AFF860B9601346FB710A4B61
:104CB000F9790CCBB86800F051F8FB681846282346
:104CC0001A46002102F07EF9F868FCF775FFF868D3
:104CD0001037BD4680BD00BF4C7E000080B584B05B
:104CE00000AFF860B9601346FB71FB7983F00103F4
:104CF000DBB21946094B0CCBB86800F02FF8FB6803
:104D0000184628231A46002102F05CF9F868FCF7DF
:104D100053FFF8681037BD4680BD00BF547E0000C9
:104D200080B584B000AFF860B9601346FB71F979C3
:104D3000094B0CCBB86800F011F8FB681846282323
:104D40001A46002102F03EF9F868FCF735FFF868D2
:104D50001037BD4680BD00BF5C7E0000F0B587B057
:104D600000AFF8600846394681E80C000346FB7244
:104D7000FB683B61184B1C683B691846FFF70FFF47
:104D800003461D463B691846FFF715FF03461A46C2
:104D90006B0113449B0023441868F97A3B460CCB03
:104DA00000F07FFE0546FB687B610B4B1C687B694E
:104DB0001846FFF7F4FE03461E467B691846FFF7C8
:104DC000FAFE03461A46730113449B0023441D60F8
:104DD00000BF1C37BD46F0BD5C01001080B582B03D
:104DE00000AF7860786800F020F800BF0837BD4653
:104DF00080BD80B584B000AF78607B681B680C33E1
:104E00001B6807F10F010122786898470346002BC1
:104E10000CBF01230023DBB2002B01D0FF23FB7367
:104E2000FB7B18461037BD4680BD80B582B000AF11
:104E300078607B681B6810331B6878689847034666
:104E4000002B03D07868FFF7D4FFF2E700BF0837E4
:104E5000BD4680BD80B489B000AF786087ED000AA0
:104E60007B6800221A607B6800225A607B680122FE
:104E70009A600023FB770023BB61BB690E2B4FDCDC
:104E8000FB7F002B4CD1BB6901337B617B690E2B0F
:104E900042DCFB7F002B3FD1BB6907EE903AF8EE76
:104EA000E77AC7ED047A7B6907EE903AF8EEE77A85
:104EB000C7ED037AD7ED046A97ED037AC6EE877AD9
:104EC000B7EE007A77EE877AC7ED027AD7ED027AED
:104ED0009FED177A77EE877A97ED007AB4EEE77A4E
:104EE000F1EE10FA14D8D7ED027A9FED117A77EE31
:104EF000C77A97ED007AB4EEE77AF1EE10FA07DBA5
:104F0000BA697B685A607A697B689A600123FB778B
:104F10007B6901337B61B9E7BB690133BB61ACE7F6
:104F200000BF78682437BD465DF8047B704700BF3A
:104F30000AD7233C80B487B000AF87ED030AC7EDE2
:104F4000020A78607B6807EE903AF8EE677AC7ED60
:104F5000057AD7ED037AB3EE007A27EE877AD7ED9C
:104F6000027A67EE277A97ED057AC7EE276AF0EEA8
:104F7000667AB0EE670A1C37BD465DF8047B704761
:104F800080B487B000AF87ED030AC7ED020A7860EE
:104F90007B6807EE903AF8EE677AC7ED057AD7EDB1
:104FA000037AB3EE007A27EE877AD7ED027A67EEBE
:104FB000277A97ED057AC7EE276AF0EE667AB0EEAB
:104FC000670A1C37BD465DF8047B704780B483B028
:104FD00000AF87ED010AD7ED017AB6EE007A77EEE1
:104FE000877AFDEEE77AF8EEE77AB0EE670A0C37DB
:104FF000BD465DF8047B704780B586B000AF87ED95
:10500000010A0023FB7597ED010AFFF7DFFF87ED2B
:10501000040A97ED017AD7ED047A77EE677AC7ED47
:10502000037AD7ED037A9FED0B7AF4EEC77AF1EEAF
:1050300010FA0ADBD7ED037A9FED077AF4EEC77A10
:10504000F1EE10FA01D80123FB75FB7D18461837E5
:10505000BD4680BD0AD723BC0AD7233C90B591B08A
:1050600000AFF861B9617A6107F114031846FEF7E1
:10507000D2FDB8620023FB63FB6900221A60FB6962
:1050800000225A60FB6901229A60BB6907EE903AE0
:10509000F8EE677AC7ED097A4FF00003BB634FF073
:1050A0007F537B634FF07E533B634FF08043FB6243
:1050B000FB6B042B00F0BE80FB6B032B00F2B8806F
:1050C00001A252F823F000BFD95000003351000074
:1050D0009351000003520000B86AF7EE000A97ED02
:1050E000090AFFF727FF87ED0E0AD7ED0E7AB7EE14
:1050F000007AF4EEC77AF1EE10FA05D5FB690022CA
:105100001A600423FB6394E097ED0E0AFFF774FF27
:105110000346002B0AD0D7ED0E7AFCEEE77A17EEA5
:10512000902AFB691A600423FB6382E00123FB637E
:105130007FE0B86AD7ED0D0A97ED090AFFF7FAFE8E
:10514000F0EE407AB0EE670AFFF740FF87ED0E0AF7
:10515000B86AD7ED0E0A97ED090AFFF711FF87ED40
:105160000D0AD7ED0D7A9FED367AF4EEC77AF1EE9F
:1051700010FA0BDBD7ED0D7A9FED327AF4EEC77A99
:10518000F1EE10FA02D80323FB6352E00223FB6323
:105190004FE0D7ED0B7AB7EE007A77EE877AC7ED5E
:1051A0000B7AD7ED0C7AB2EE0E7AF4EEC77AF1EE06
:1051B00010FA02DD0423FB633BE0D7ED0B7AB2EE7D
:1051C0000E7AF4EEC77AF1EE10FA0FDDD7ED0C7A15
:1051D000B7EE007A77EE877AC7ED0C7AD7ED0C7AC6
:1051E000B7EE007A77EE877AC7ED0B7AD7ED0C6AC7
:1051F00097ED0B7AC6EE877AC7ED0D7A0123FB6334
:1052000017E0FC693B4697ED0D0A1846FFF722FEB2
:105210003B4693E8070084E80700D7ED0E7AFCEEE2
:10522000E77A17EE902AFB691A600423FB6300E01B
:1052300000BF3DE700BFF8694437BD4690BD00BFE1
:10524000CDCC8C3F3333F33F80B59AB000AFF860DC
:10525000B9607A60072387F86730FEF7DFFA034604
:105260001A6810321268B968496849681846904748
:105270007968B86800F046F8BB685B68DB681B6853
:1052800004331B68BA685268D168BA685268127CE5
:10529000C2F3C202D2B207F114009847BB685B6840
:1052A0009B681B6804331B68BA6852689168BA68C7
:1052B0005268127CC2F30202D2B207F13C00984756
:1052C000BB685B68DB681846FFF758FCBB685B6827
:1052D0009B681846FFF752FCBB685B681B681B7A2B
:1052E000DAB2BB685B681B6842F00702D2B21A727E
:1052F0000349F868FBF710FAF8686837BD4680BDC7
:105300003471000080B588B000AF78603960FEF776
:1053100085FAF861FB691B6808331B687A68526874
:105320005168F869984703467B6107F108037A6979
:1053300039681846FFF792FE8023FB76BB681B0A8C
:10534000BB76BB687B763B69DBB21B01DAB2FB68DC
:10535000DBB203F00F03DBB213433B767B685B6881
:105360001B6880221A737B685B681B68BA7E1A719F
:105370007B685B681B687A7E1A707B685B681B6859
:105380003A7E83F828207B685B681B6803221A73C7
:10539000012318462037BD4680BD80B586B000AFDA
:1053A000F860B9607A60BB683B6100237B617A6911
:1053B0007B689A4216D23A697B691A44FB685B683B
:1053C0001B6812781A70F86800F043F8034683F0FF
:1053D0000103DBB2002B01D000BFF4E77B6901338E
:1053E0007B61E4E700BF1837BD4680BD80B586B05D
:1053F00000AFF860B9607A60BB683B6100237B61F5
:10540000F86800F038F80346002B11D07A697B6801
:105410009A420CD2FB685B681B681B78D9B27B6927
:105420005A1C7A613A6913440A461A70E8E700BFC9
:105430007B6918461837BD4680BD80B582B000AF85
:105440007860786800F017F8034618460837BD46BC
:1054500080BD80B582B000AF78607B685B681B68F8
:105460001B7DDBB20521184600F030FB03461846D1
:105470000837BD4680BD80B582B000AF78607B68DC
:105480005B681B681B7DDBB20021184600F01EFB29
:10549000034618460837BD4680BDFFFF80B582B081
:1054A00000AF786039603A6879680448FFF775FFA3
:1054B0003B6818460837BD4680BD00BF9800001005
:1054C00080B582B000AF786039600A48FFF7B5FF59
:1054D000034683F00103DBB2002B01D000BFF4E7E9
:1054E0003A6879680348FFF781FF3B681846083738
:1054F000BD4680BD9800001080B500AF0248FEF7A1
:1055000051F80346184680BD1802001080B594B0CB
:1055100002AFFEF757F83048FEF768F82F48FEF75D
:105520006DF92E48FEF7ACFD07F10C034FF416425F
:105530002B491846FFF788FE2A4801F09DF92A48B2
:1055400001F0AAF92948FEF745FA294B19682748BE
:10555000FEF780FB3B4625491846FEF7A3FA07F104
:10556000180324491846FBF7D7F807F118023B4601
:1055700011461846FEF720F9034683F00103DBB21B
:10558000002B12D007F1280000230093C1231A4AF0
:105590001A49FAF7EDFE07F1280207F1240318492A
:1055A0001846FCF7D3F9FCF7CDF91648FDF7D8FFFC
:1055B00007F1380314491846FBF780FA07F138035E
:1055C0001846FEF70DF907F138031846FBF736F9D0
:1055D00000BF4837BD4680BDB80000107C000010F9
:1055E000980000109D540000C1540000A00000105D
:1055F000BC7D000034710000D87B0000EC7B000013
:10560000347C0000180200105D39000080B586B0BF
:1056100000AF7860396007F108033968184600F078
:10562000D3FA07F108037968184600F0EFFA07F19A
:1056300008031846FBF702F97B6818461837BD4681
:1056400080BD80B582B000AF786039607B68184655
:10565000FAF736FF7B6818460837BD4680BD80B52F
:1056600082B000AF78607B68184600F0F0FA00BFA7
:1056700078680837BD4680BD80B582B000AF7860DD
:105680007B681846FAF73DFF034683F00103DBB25F
:1056900018460837BD4680BD80B582B000AF78603F
:1056A0007B681846FAF72DFF0346002B01D001F066
:1056B00008F97B68DB687A681046984700BF0837AE
:1056C000BD4680BD80B582B000AF78607868FEF7D7
:1056D000AEFA034618460837BD4680BD80B582B095
:1056E00000AF78607B68184600F0C6FA00BF7868A3
:1056F0000837BD4680BD80B586B000AF78603960A0
:1057000007F108033968184600F0FCF907F10803AF
:105710007968184600F0C8FA07F108031846FEF742
:1057200089F87B6818461837BD4680BD90B583B0B0
:1057300000AF786039607B681846FAF7C1FE3B68B5
:10574000184600F0D2FA0346002B0FD07C683B4687
:10575000184600F0DAFA03461946204600F0E0FA4F
:105760007B68054ADA607B68044A9A607B68184661
:105770000C37BD4690BD00BF455D0000615D000077
:1057800080B584B000AF78607B681846FCF742FBB8
:10579000F0EE407AC7ED037A07F10C03184600F0EB
:1057A0000AFBF0EE407AFCEEE77A17EE903A1846E4
:1057B0001037BD4680BD80B483B000AF78603960DB
:1057C0007B683A681A603B681A687B685A607B6835
:1057D00018460C37BD465DF8047B704780B584B031
:1057E00000AFF860B960394681E80C00FB68586882
:1057F0003B460CCBB96800F00EF90246FB685A60D4
:10580000FB6818461037BD4680BD80B582B000AF3A
:10581000786039603B68184600F0DBFAF0EE407AB9
:105820007B68C3ED007A7B6818460837BD4680BDAB
:1058300080B584B000AF78600B46FB707B6818467B
:10584000FCF7E8FAF0EE406AFB7807EE903AF8EEE3
:10585000E77A86EEA77A07F10C03B0EE470A1846FE
:10586000FDF75BFFFB6818461037BD4680BD80B56D
:1058700084B000AF786039607B681846FCF7CAFADC
:10588000F0EE406A3B6807EE903AF8EEE77A86EE73
:10589000A77A07F10C03B0EE470A1846FDF73DFF63
:1058A000FB6818461037BD4680BD80B52DED028BD4
:1058B00082B000AF786039607B6893ED008A3B6806
:1058C000184600F086FAF0EE407AB4EEE78AF1EE80
:1058D00010FA4CBF01230023DBB218460837BD463F
:1058E000BDEC028B80BD80B52DED028B82B000AF88
:1058F000786039607B6893ED008A3B68184600F059
:1059000068FAF0EE407AB4EEE78AF1EE10FAACBF36
:1059100001230023DBB218460837BD46BDEC028BDD
:1059200080BD80B584B000AFF860B960394681E8C9
:105930000C003A687B68B968F86800F058FA0346CA
:1059400018461037BD4680BD80B584B000AF786082
:105950000B46FB707B681846FCF75CFAB0EE407AA9
:10596000FB7807EE903AF8EEE77A67EE277A07F1D0
:105970000C03B0EE670A1846FDF780FEFB68184678
:105980001037BD4680BD80B483B000AF78607B68BF
:105990005B6818460C37BD465DF8047B704780B5E0
:1059A00084B000AF786039607B681846FCF732FA43
:1059B000B0EE407A3B6807EE903AF8EEE77A67EE91
:1059C000277A07F10C03B0EE670A1846FDF7A5FE2B
:1059D000FB6818461037BD4680BD80B52DED028BA3
:1059E00082B000AF786039607B6893ED008A3B68D5
:1059F000184600F0EEF9F0EE407AB4EEE78AF1EEE8
:105A000010FA94BF01230023DBB218460837BD46C5
:105A1000BDEC028B80BD80B584B000AFF860B9608A
:105A2000394681E80C003A687B68B968F86800F08C
:105A30000AFA034618461037BD4680BD80B584B0CB
:105A400000AFF8603B1D83E806007B681946F868E4
:105A500000F025FA034618461037BD4680BD80B5D4
:105A600084B000AFF8603B1D83E806007B681946F0
:105A7000F86800F02EFA034618461037BD4680BD80
:105A800080B584B000AFF8603B1D83E806007B68FA
:105A90001946F86800F033FA034618461037BD4639
:105AA00080BD80B584B000AFF8600846394681E813
:105AB0000C000346FB723A687B68F97AF86800F0DC
:105AC00033FA034618461037BD4680BD80B485B012
:105AD00000AF03463960FB710123FB73FA7B3B681F
